{
  "fileName": "TimelockController.sol",
  "contractName": "TimelockController",
  "source": "// SPDX-License-Identifier: MIT\n\npragma solidity ^0.6.0;\npragma experimental ABIEncoderV2;\n\nimport \"./../math/SafeMath.sol\";\nimport \"./AccessControl.sol\";\n\n/**\n * @dev Contract module which acts as a timelocked controller. When set as the\n * owner of an `Ownable` smart contract, it enforces a timelock on all\n * `onlyOwner` maintenance operations. This gives time for users of the\n * controlled contract to exit before a potentially dangerous maintenance\n * operation is applied.\n *\n * Timelocked operations are identified by a unique id (their hash) and follow\n * a specific lifecycle: `Unset` → `Pending` → `Ready` → `Done`\n *\n * - `Unset`: The operation is not part of the timelock mechanism\n *\n * - `Pending`: By calling the {schedule} (or {scheduleBatch}) method, the\n * operation moves from the `Unset` to the `Pending` state. This starts a timer\n * of at least `minDelay`.\n *\n * - `Ready`: After the timer expires, the operation moves from the `Pending` to\n * the `Ready` state. At this point, it can be executed.\n *\n * - `Done`: Once an operation is ready, calling the {execute} (or\n * {executeBatch}) method will process it and move it to the `Done` state. If\n * the operation has a predecessor, it should be in the `Done` state. The\n * operation shall not be executed twice. To execute the same instruction a\n * second time, restart the cycle with a different salt (thus producing a\n * different operation id).\n *\n * `Pending` and `Ready` operations can be cancelled using the {cancel} method.\n * This resets the operation to the `Unset` state, making it possibly\n * reschedule.\n *\n * This contract is designed to be self administered, meaning it should be its\n * own administrator. The proposer (resp executor) role is in charge of\n * proposing (resp executing) operation. A common use case is to position this\n * {TimelockController} as the owner of a smart contract, with a multisig or a\n * DAO as the sole proposer. Once at least one executer and one proposer have\n * been appointed, self-administration can be enable using the `makeLive`\n * function.\n *\n * WARNING: A live contract without at least one proposer and one executer is\n * locked. Make sure these roles are filled by reliable entities. See the\n * {AccessControl} documentation to learn more about role management. Once the\n * {TimelockController} contract is live, role management is performed through\n * timelocked operations.\n */\n\ncontract TimelockController is AccessControl {\n\n    bytes32 public constant ADMIN_ROLE = keccak256(\"ADMIN_ROLE\");\n    bytes32 public constant PROPOSER_ROLE = keccak256(\"PROPOSER_ROLE\");\n    bytes32 public constant EXECUTER_ROLE = keccak256(\"EXECUTER_ROLE\");\n    uint256 internal constant _DONE_TIMESTAMP = uint256(1);\n\n    mapping(bytes32 => uint256) private _timestamps;\n    uint256 private _minDelay;\n\n    /**\n     * @dev Emitted when a call is scheduled as part of operation `id`.\n     */\n    event CallScheduled(bytes32 indexed id, uint256 indexed index, address target, uint256 value, bytes data, bytes32 predecessor);\n\n    /**\n     * @dev Emitted when a call is performed as part of operation `id`.\n     */\n    event CallExecuted(bytes32 indexed id, uint256 indexed index, address target, uint256 value, bytes data);\n\n    /**\n     * @dev Emitted when operation `id` is cancelled.\n     */\n    event Cancelled(bytes32 indexed id);\n\n    /**\n     * @dev Emitted when the minimum delay for future operations is modified.\n     */\n    event MinDelayChange(uint256 newDuration, uint256 oldDuration);\n\n    /**\n     * @dev Initializes the contract with a given `minDelay`.\n     */\n    constructor(uint256 minDelay) public {\n        _setRoleAdmin(ADMIN_ROLE, ADMIN_ROLE);\n        _setRoleAdmin(PROPOSER_ROLE, ADMIN_ROLE);\n        _setRoleAdmin(EXECUTER_ROLE, ADMIN_ROLE);\n        _setupRole(ADMIN_ROLE, _msgSender());\n\n        _minDelay = minDelay;\n        emit MinDelayChange(minDelay, 0);\n    }\n\n    /**\n     * @dev Modifier to make a function callable only by a certain role. In\n     * addition to checking the sender's role, address(0)'s role is also\n     * considered. Granting a role to Address(0) is equivalent to enabling this\n     * role for everyone.\n     */\n    modifier onlyRole(bytes32 role) {\n        require(hasRole(role, _msgSender()) || hasRole(role, address(0)), \"TimelockController: sender requiers permission\");\n        _;\n    }\n\n    /*\n     * @dev Contract might receive/hold ETH as part of the maintenance process.\n     */\n    receive() external payable {}\n\n    /**\n     * @dev Returns whether an operation is pending or not.\n     */\n    function isOperationPending(bytes32 id) public view returns (bool pending) {\n        return _timestamps[id] > _DONE_TIMESTAMP;\n    }\n\n    /**\n     * @dev Returns whether an operation is ready or not.\n     */\n    function isOperationReady(bytes32 id) public view returns (bool ready) {\n        // solhint-disable-next-line not-rely-on-time\n        return _timestamps[id] > _DONE_TIMESTAMP && _timestamps[id] <= block.timestamp;\n    }\n\n    /**\n     * @dev Returns whether an operation is done or not.\n     */\n    function isOperationDone(bytes32 id) public view returns (bool done) {\n        return _timestamps[id] == _DONE_TIMESTAMP;\n    }\n\n    /**\n     * @dev Returns the timestamp at with an operation becomes ready (0 for\n     * unset operations, 1 for done operations).\n     */\n    function viewTimestamp(bytes32 id) public view returns (uint256 timestamp) {\n        return _timestamps[id];\n    }\n\n    /**\n     * @dev Returns the minimum delay for an operation to become valid.\n     */\n    function viewMinDelay() public view returns (uint256 duration) {\n        return _minDelay;\n    }\n\n    /**\n     * @dev Returns the identifier of an operation containing a single\n     * transaction.\n     */\n    function hashOperation(address target, uint256 value, bytes calldata data, bytes32 predecessor, bytes32 salt) public pure returns (bytes32 hash) {\n        return keccak256(abi.encode(target, value, data, predecessor, salt));\n    }\n\n    /**\n     * @dev Returns the identifier of an operation containing a batch of\n     * transactions.\n     */\n    function hashOperationBatch(address[] calldata targets, uint256[] calldata values, bytes[] calldata datas, bytes32 predecessor, bytes32 salt) public pure returns (bytes32 hash) {\n        return keccak256(abi.encode(targets, values, datas, predecessor, salt));\n    }\n\n    /**\n     * @dev Schedule an operation containing a single transaction.\n     *\n     * Emits a {CallScheduled} event.\n     *\n     * Requirements:\n     *\n     * - the caller must have the 'proposer' role.\n     */\n    function schedule(address target, uint256 value, bytes calldata data, bytes32 predecessor, bytes32 salt, uint256 delay) public onlyRole(PROPOSER_ROLE) {\n        bytes32 id = hashOperation(target, value, data, predecessor, salt);\n        _schedule(id, delay);\n        emit CallScheduled(id, 0, target, value, data, predecessor);\n    }\n\n    /**\n     * @dev Schedule an operation containing a batch of transactions.\n     *\n     * Emits one {CallScheduled} event per transaction in the batch.\n     *\n     * Requirements:\n     *\n     * - the caller must have the 'proposer' role.\n     */\n    function scheduleBatch(address[] calldata targets, uint256[] calldata values, bytes[] calldata datas, bytes32 predecessor, bytes32 salt, uint256 delay) public onlyRole(PROPOSER_ROLE) {\n        require(targets.length == values.length, \"TimelockController: length missmatch\");\n        require(targets.length == datas.length, \"TimelockController: length missmatch\");\n\n        bytes32 id = hashOperationBatch(targets, values, datas, predecessor, salt);\n        _schedule(id, delay);\n        for (uint256 i = 0; i < targets.length; ++i) {\n            emit CallScheduled(id, i, targets[i], values[i], datas[i], predecessor);\n        }\n    }\n\n    /**\n     * @dev Schedule an operation that is to becomes valid after a given delay.\n     */\n    function _schedule(bytes32 id, uint256 delay) internal {\n        require(_timestamps[id] == 0, \"TimelockController: operation already scheduled\");\n        require(delay >= _minDelay, \"TimelockController: insufficient delay\");\n        // solhint-disable-next-line not-rely-on-time\n        _timestamps[id] = SafeMath.add(block.timestamp, delay);\n    }\n\n    /**\n     * @dev Cancel an operation.\n     *\n     * Requirements:\n     *\n     * - the caller must have the 'proposer' role.\n     */\n    function cancel(bytes32 id) public onlyRole(PROPOSER_ROLE) {\n        require(!isOperationDone(id), \"TimelockController: operation is already executed\");\n        delete _timestamps[id];\n\n        emit Cancelled(id);\n    }\n\n    /**\n     * @dev Execute an (ready) operation containing a single transaction.\n     *\n     * Emits a {CallExecuted} event.\n     *\n     * Requirements:\n     *\n     * - the caller must have the 'executer' role.\n     */\n    function execute(address target, uint256 value, bytes calldata data, bytes32 predecessor, bytes32 salt) public payable onlyRole(EXECUTER_ROLE) {\n        bytes32 id = hashOperation(target, value, data, predecessor, salt);\n        _execute(id, predecessor);\n        _call(id, 0, target, value, data);\n    }\n\n    /**\n     * @dev Execute an (ready) operation containing a batch of transactions.\n     *\n     * Emits one {CallExecuted} event per transaction in the batch.\n     *\n     * Requirements:\n     *\n     * - the caller must have the 'executer' role.\n     */\n    function executeBatch(address[] calldata targets, uint256[] calldata values, bytes[] calldata datas, bytes32 predecessor, bytes32 salt) public payable onlyRole(EXECUTER_ROLE) {\n        require(targets.length == values.length, \"TimelockController: length missmatch\");\n        require(targets.length == datas.length, \"TimelockController: length missmatch\");\n\n        bytes32 id = hashOperationBatch(targets, values, datas, predecessor, salt);\n        _execute(id, predecessor);\n        for (uint256 i = 0; i < targets.length; ++i) {\n            _call(id, i, targets[i], values[i], datas[i]);\n        }\n    }\n\n    /**\n     * @dev Execute an operation. Operation must be ready.\n     */\n    function _execute(bytes32 id, bytes32 predecessor) internal {\n        require(isOperationReady(id), \"TimelockController: operation is not ready\");\n        require(predecessor == bytes32(0) || isOperationDone(predecessor), \"TimelockController: missing dependency\");\n        _timestamps[id] = _DONE_TIMESTAMP;\n    }\n\n    /**\n     * @dev Execute a transaction.\n     *\n     * Emits a {CallExecuted} event.\n     */\n    function _call(bytes32 id, uint256 index, address target, uint256 value, bytes calldata data) internal returns (bool) {\n        // solhint-disable-next-line avoid-low-level-calls\n        (bool success,) = target.call{value: value}(data);\n        require(success, \"TimelockController: underlying transaction reverted\");\n\n        emit CallExecuted(id, index, target, value, data);\n    }\n\n    /**\n     * @dev Changes the timelock duration for future operations.\n     *\n     * Emits a {Timelock-MinDelayChange} event.\n     */\n    function updateDelay(uint256 newDelay) external {\n        require(msg.sender == address(this), \"TimelockController: restricted maintenance access\");\n        emit MinDelayChange(newDelay, _minDelay);\n        _minDelay = newDelay;\n    }\n\n    /**\n     * @dev Revocate the sender's administrative power, and give this role to\n     * the timelock itself. All further maintenance will have to be performed\n     * by the timelock itself using the commit/reveal workflow.\n     *\n     * Emits one {RoleGranted} and one {RoleRevoked} event.\n     *\n     * Requirements:\n     *\n     * - the caller must be the only address with `ADMIN_ROLE`.\n     * - there must be at least one account with 'PROPOSER_ROLE' and one with\n     *   'EXECUTER_ROLE'.\n     */\n    function makeLive() external /* onlyRole(ADMIN_ROLE) */ {\n        require(getRoleMemberCount(ADMIN_ROLE) == 1, \"TimelockController: there should not be any other administrator\");\n        require(getRoleMemberCount(PROPOSER_ROLE) > 0, \"TimelockController: at least one proposer is requied to make the contract live\");\n        require(getRoleMemberCount(EXECUTER_ROLE) > 0, \"TimelockController: at least one executer is requied to make the contract live\");\n        grantRole(ADMIN_ROLE, address(this));\n        revokeRole(ADMIN_ROLE, _msgSender());\n    }\n}\n\n// Time tracking\n// 28/08: 5h (5h)\n// 30/08: 1h (6h)\n//  1/09: 2h (8h)\n//  2/09: 1h (9h)\n//  3/09: 1h (10h)\n//  5/09: 2h (12h)\n//  7/09: 2h (14h)\n",
  "sourcePath": "contracts/access/TimelockController.sol",
  "abi": [
    {
      "inputs": [
        {
          "internalType": "uint256",
          "name": "minDelay",
          "type": "uint256"
        }
      ],
      "stateMutability": "nonpayable",
      "type": "constructor"
    },
    {
      "anonymous": false,
      "inputs": [
        {
          "indexed": true,
          "internalType": "bytes32",
          "name": "id",
          "type": "bytes32"
        },
        {
          "indexed": true,
          "internalType": "uint256",
          "name": "index",
          "type": "uint256"
        },
        {
          "indexed": false,
          "internalType": "address",
          "name": "target",
          "type": "address"
        },
        {
          "indexed": false,
          "internalType": "uint256",
          "name": "value",
          "type": "uint256"
        },
        {
          "indexed": false,
          "internalType": "bytes",
          "name": "data",
          "type": "bytes"
        }
      ],
      "name": "CallExecuted",
      "type": "event"
    },
    {
      "anonymous": false,
      "inputs": [
        {
          "indexed": true,
          "internalType": "bytes32",
          "name": "id",
          "type": "bytes32"
        },
        {
          "indexed": true,
          "internalType": "uint256",
          "name": "index",
          "type": "uint256"
        },
        {
          "indexed": false,
          "internalType": "address",
          "name": "target",
          "type": "address"
        },
        {
          "indexed": false,
          "internalType": "uint256",
          "name": "value",
          "type": "uint256"
        },
        {
          "indexed": false,
          "internalType": "bytes",
          "name": "data",
          "type": "bytes"
        },
        {
          "indexed": false,
          "internalType": "bytes32",
          "name": "predecessor",
          "type": "bytes32"
        }
      ],
      "name": "CallScheduled",
      "type": "event"
    },
    {
      "anonymous": false,
      "inputs": [
        {
          "indexed": true,
          "internalType": "bytes32",
          "name": "id",
          "type": "bytes32"
        }
      ],
      "name": "Cancelled",
      "type": "event"
    },
    {
      "anonymous": false,
      "inputs": [
        {
          "indexed": false,
          "internalType": "uint256",
          "name": "newDuration",
          "type": "uint256"
        },
        {
          "indexed": false,
          "internalType": "uint256",
          "name": "oldDuration",
          "type": "uint256"
        }
      ],
      "name": "MinDelayChange",
      "type": "event"
    },
    {
      "anonymous": false,
      "inputs": [
        {
          "indexed": true,
          "internalType": "bytes32",
          "name": "role",
          "type": "bytes32"
        },
        {
          "indexed": true,
          "internalType": "bytes32",
          "name": "previousAdminRole",
          "type": "bytes32"
        },
        {
          "indexed": true,
          "internalType": "bytes32",
          "name": "newAdminRole",
          "type": "bytes32"
        }
      ],
      "name": "RoleAdminChanged",
      "type": "event"
    },
    {
      "anonymous": false,
      "inputs": [
        {
          "indexed": true,
          "internalType": "bytes32",
          "name": "role",
          "type": "bytes32"
        },
        {
          "indexed": true,
          "internalType": "address",
          "name": "account",
          "type": "address"
        },
        {
          "indexed": true,
          "internalType": "address",
          "name": "sender",
          "type": "address"
        }
      ],
      "name": "RoleGranted",
      "type": "event"
    },
    {
      "anonymous": false,
      "inputs": [
        {
          "indexed": true,
          "internalType": "bytes32",
          "name": "role",
          "type": "bytes32"
        },
        {
          "indexed": true,
          "internalType": "address",
          "name": "account",
          "type": "address"
        },
        {
          "indexed": true,
          "internalType": "address",
          "name": "sender",
          "type": "address"
        }
      ],
      "name": "RoleRevoked",
      "type": "event"
    },
    {
      "inputs": [],
      "name": "ADMIN_ROLE",
      "outputs": [
        {
          "internalType": "bytes32",
          "name": "",
          "type": "bytes32"
        }
      ],
      "stateMutability": "view",
      "type": "function"
    },
    {
      "inputs": [],
      "name": "DEFAULT_ADMIN_ROLE",
      "outputs": [
        {
          "internalType": "bytes32",
          "name": "",
          "type": "bytes32"
        }
      ],
      "stateMutability": "view",
      "type": "function"
    },
    {
      "inputs": [],
      "name": "EXECUTER_ROLE",
      "outputs": [
        {
          "internalType": "bytes32",
          "name": "",
          "type": "bytes32"
        }
      ],
      "stateMutability": "view",
      "type": "function"
    },
    {
      "inputs": [],
      "name": "PROPOSER_ROLE",
      "outputs": [
        {
          "internalType": "bytes32",
          "name": "",
          "type": "bytes32"
        }
      ],
      "stateMutability": "view",
      "type": "function"
    },
    {
      "inputs": [
        {
          "internalType": "bytes32",
          "name": "id",
          "type": "bytes32"
        }
      ],
      "name": "cancel",
      "outputs": [],
      "stateMutability": "nonpayable",
      "type": "function"
    },
    {
      "inputs": [
        {
          "internalType": "address",
          "name": "target",
          "type": "address"
        },
        {
          "internalType": "uint256",
          "name": "value",
          "type": "uint256"
        },
        {
          "internalType": "bytes",
          "name": "data",
          "type": "bytes"
        },
        {
          "internalType": "bytes32",
          "name": "predecessor",
          "type": "bytes32"
        },
        {
          "internalType": "bytes32",
          "name": "salt",
          "type": "bytes32"
        }
      ],
      "name": "execute",
      "outputs": [],
      "stateMutability": "payable",
      "type": "function"
    },
    {
      "inputs": [
        {
          "internalType": "address[]",
          "name": "targets",
          "type": "address[]"
        },
        {
          "internalType": "uint256[]",
          "name": "values",
          "type": "uint256[]"
        },
        {
          "internalType": "bytes[]",
          "name": "datas",
          "type": "bytes[]"
        },
        {
          "internalType": "bytes32",
          "name": "predecessor",
          "type": "bytes32"
        },
        {
          "internalType": "bytes32",
          "name": "salt",
          "type": "bytes32"
        }
      ],
      "name": "executeBatch",
      "outputs": [],
      "stateMutability": "payable",
      "type": "function"
    },
    {
      "inputs": [
        {
          "internalType": "bytes32",
          "name": "role",
          "type": "bytes32"
        }
      ],
      "name": "getRoleAdmin",
      "outputs": [
        {
          "internalType": "bytes32",
          "name": "",
          "type": "bytes32"
        }
      ],
      "stateMutability": "view",
      "type": "function"
    },
    {
      "inputs": [
        {
          "internalType": "bytes32",
          "name": "role",
          "type": "bytes32"
        },
        {
          "internalType": "uint256",
          "name": "index",
          "type": "uint256"
        }
      ],
      "name": "getRoleMember",
      "outputs": [
        {
          "internalType": "address",
          "name": "",
          "type": "address"
        }
      ],
      "stateMutability": "view",
      "type": "function"
    },
    {
      "inputs": [
        {
          "internalType": "bytes32",
          "name": "role",
          "type": "bytes32"
        }
      ],
      "name": "getRoleMemberCount",
      "outputs": [
        {
          "internalType": "uint256",
          "name": "",
          "type": "uint256"
        }
      ],
      "stateMutability": "view",
      "type": "function"
    },
    {
      "inputs": [
        {
          "internalType": "bytes32",
          "name": "role",
          "type": "bytes32"
        },
        {
          "internalType": "address",
          "name": "account",
          "type": "address"
        }
      ],
      "name": "grantRole",
      "outputs": [],
      "stateMutability": "nonpayable",
      "type": "function"
    },
    {
      "inputs": [
        {
          "internalType": "bytes32",
          "name": "role",
          "type": "bytes32"
        },
        {
          "internalType": "address",
          "name": "account",
          "type": "address"
        }
      ],
      "name": "hasRole",
      "outputs": [
        {
          "internalType": "bool",
          "name": "",
          "type": "bool"
        }
      ],
      "stateMutability": "view",
      "type": "function"
    },
    {
      "inputs": [
        {
          "internalType": "address",
          "name": "target",
          "type": "address"
        },
        {
          "internalType": "uint256",
          "name": "value",
          "type": "uint256"
        },
        {
          "internalType": "bytes",
          "name": "data",
          "type": "bytes"
        },
        {
          "internalType": "bytes32",
          "name": "predecessor",
          "type": "bytes32"
        },
        {
          "internalType": "bytes32",
          "name": "salt",
          "type": "bytes32"
        }
      ],
      "name": "hashOperation",
      "outputs": [
        {
          "internalType": "bytes32",
          "name": "hash",
          "type": "bytes32"
        }
      ],
      "stateMutability": "pure",
      "type": "function"
    },
    {
      "inputs": [
        {
          "internalType": "address[]",
          "name": "targets",
          "type": "address[]"
        },
        {
          "internalType": "uint256[]",
          "name": "values",
          "type": "uint256[]"
        },
        {
          "internalType": "bytes[]",
          "name": "datas",
          "type": "bytes[]"
        },
        {
          "internalType": "bytes32",
          "name": "predecessor",
          "type": "bytes32"
        },
        {
          "internalType": "bytes32",
          "name": "salt",
          "type": "bytes32"
        }
      ],
      "name": "hashOperationBatch",
      "outputs": [
        {
          "internalType": "bytes32",
          "name": "hash",
          "type": "bytes32"
        }
      ],
      "stateMutability": "pure",
      "type": "function"
    },
    {
      "inputs": [
        {
          "internalType": "bytes32",
          "name": "id",
          "type": "bytes32"
        }
      ],
      "name": "isOperationDone",
      "outputs": [
        {
          "internalType": "bool",
          "name": "done",
          "type": "bool"
        }
      ],
      "stateMutability": "view",
      "type": "function"
    },
    {
      "inputs": [
        {
          "internalType": "bytes32",
          "name": "id",
          "type": "bytes32"
        }
      ],
      "name": "isOperationPending",
      "outputs": [
        {
          "internalType": "bool",
          "name": "pending",
          "type": "bool"
        }
      ],
      "stateMutability": "view",
      "type": "function"
    },
    {
      "inputs": [
        {
          "internalType": "bytes32",
          "name": "id",
          "type": "bytes32"
        }
      ],
      "name": "isOperationReady",
      "outputs": [
        {
          "internalType": "bool",
          "name": "ready",
          "type": "bool"
        }
      ],
      "stateMutability": "view",
      "type": "function"
    },
    {
      "inputs": [],
      "name": "makeLive",
      "outputs": [],
      "stateMutability": "nonpayable",
      "type": "function"
    },
    {
      "inputs": [
        {
          "internalType": "bytes32",
          "name": "role",
          "type": "bytes32"
        },
        {
          "internalType": "address",
          "name": "account",
          "type": "address"
        }
      ],
      "name": "renounceRole",
      "outputs": [],
      "stateMutability": "nonpayable",
      "type": "function"
    },
    {
      "inputs": [
        {
          "internalType": "bytes32",
          "name": "role",
          "type": "bytes32"
        },
        {
          "internalType": "address",
          "name": "account",
          "type": "address"
        }
      ],
      "name": "revokeRole",
      "outputs": [],
      "stateMutability": "nonpayable",
      "type": "function"
    },
    {
      "inputs": [
        {
          "internalType": "address",
          "name": "target",
          "type": "address"
        },
        {
          "internalType": "uint256",
          "name": "value",
          "type": "uint256"
        },
        {
          "internalType": "bytes",
          "name": "data",
          "type": "bytes"
        },
        {
          "internalType": "bytes32",
          "name": "predecessor",
          "type": "bytes32"
        },
        {
          "internalType": "bytes32",
          "name": "salt",
          "type": "bytes32"
        },
        {
          "internalType": "uint256",
          "name": "delay",
          "type": "uint256"
        }
      ],
      "name": "schedule",
      "outputs": [],
      "stateMutability": "nonpayable",
      "type": "function"
    },
    {
      "inputs": [
        {
          "internalType": "address[]",
          "name": "targets",
          "type": "address[]"
        },
        {
          "internalType": "uint256[]",
          "name": "values",
          "type": "uint256[]"
        },
        {
          "internalType": "bytes[]",
          "name": "datas",
          "type": "bytes[]"
        },
        {
          "internalType": "bytes32",
          "name": "predecessor",
          "type": "bytes32"
        },
        {
          "internalType": "bytes32",
          "name": "salt",
          "type": "bytes32"
        },
        {
          "internalType": "uint256",
          "name": "delay",
          "type": "uint256"
        }
      ],
      "name": "scheduleBatch",
      "outputs": [],
      "stateMutability": "nonpayable",
      "type": "function"
    },
    {
      "inputs": [
        {
          "internalType": "uint256",
          "name": "newDelay",
          "type": "uint256"
        }
      ],
      "name": "updateDelay",
      "outputs": [],
      "stateMutability": "nonpayable",
      "type": "function"
    },
    {
      "inputs": [],
      "name": "viewMinDelay",
      "outputs": [
        {
          "internalType": "uint256",
          "name": "duration",
          "type": "uint256"
        }
      ],
      "stateMutability": "view",
      "type": "function"
    },
    {
      "inputs": [
        {
          "internalType": "bytes32",
          "name": "id",
          "type": "bytes32"
        }
      ],
      "name": "viewTimestamp",
      "outputs": [
        {
          "internalType": "uint256",
          "name": "timestamp",
          "type": "uint256"
        }
      ],
      "stateMutability": "view",
      "type": "function"
    },
    {
      "stateMutability": "payable",
      "type": "receive"
    }
  ],
  "bytecode": "0x60806040523480156200001157600080fd5b5060405162001f9138038062001f91833981016040819052620000349162000298565b6200004f60008051602062001f718339815191528062000132565b6200008a7fb09aa5aeb3702cfd50b6b62bc4532604938f21248a27a1d5ca736082b6819cc160008051602062001f7183398151915262000132565b620000c57ff6d4b94561d34a2e202535a880be5a411bcfa4d7aeb44117cc8d682e63ec475960008051602062001f7183398151915262000132565b620000e960008051602062001f71833981519152620000e362000184565b62000188565b60028190556040517f11c24f4ead16507c69ac467fbd5e4eed5fb5c699626d2cc6d66421df253886d59062000123908390600090620002b1565b60405180910390a150620002bf565b600082815260208190526040808220600201549051839285917fbd79b86ffe0ab8e8776151514217cd7cacd52c909f66475c3af44e129f0b00ff9190a460009182526020829052604090912060020155565b3390565b62000194828262000198565b5050565b600082815260208181526040909120620001bd91839062000c5462000211821b17901c565b156200019457620001cd62000184565b6001600160a01b0316816001600160a01b0316837f2f8788117e7eff1d82e926ec794901d17c78024a50270940304540a733656f0d60405160405180910390a45050565b600062000228836001600160a01b03841662000231565b90505b92915050565b60006200023f838362000280565b62000277575081546001818101845560008481526020808220909301849055845484825282860190935260409020919091556200022b565b5060006200022b565b60009081526001919091016020526040902054151590565b600060208284031215620002aa578081fd5b5051919050565b918252602082015260400190565b611ca280620002cf6000396000f3fe60806040526004361061016a5760003560e01c80638f61f4f5116100d1578063b1c5f4271161008a578063ca15c87311610064578063ca15c87314610404578063d547741f14610424578063da04d01314610444578063e38335e51461045957610171565b8063b1c5f427146103a4578063c4d252f5146103c4578063c5226cb2146103e457610171565b80638f61f4f5146103035780639010d07c1461031857806390e7760e1461034557806391d148541461035a578063a217fddf1461037a578063ad281f9f1461038f57610171565b806336568abe1161012357806336568abe1461024e578063584b153e1461026e57806364d623531461028e57806375b238fc146102ae5780638065657f146102c35780638f2a0bb0146102e357610171565b806301d5062a14610176578063134008d31461019857806313bc9f20146101ab578063248a9ca3146101e15780632ab0f5291461020e5780632f2ff15d1461022e57610171565b3661017157005b600080fd5b34801561018257600080fd5b506101966101913660046111dd565b61046c565b005b6101966101a6366004611171565b610526565b3480156101b757600080fd5b506101cb6101c63660046113a4565b6105a4565b6040516101d89190611635565b60405180910390f35b3480156101ed57600080fd5b506102016101fc3660046113a4565b6105d6565b6040516101d89190611640565b34801561021a57600080fd5b506101cb6102293660046113a4565b6105eb565b34801561023a57600080fd5b506101966102493660046113bc565b610601565b34801561025a57600080fd5b506101966102693660046113bc565b610649565b34801561027a57600080fd5b506101cb6102893660046113a4565b61068b565b34801561029a57600080fd5b506101966102a93660046113a4565b6106a1565b3480156102ba57600080fd5b50610201610700565b3480156102cf57600080fd5b506102016102de366004611171565b610712565b3480156102ef57600080fd5b506101966102fe3660046112f6565b610751565b34801561030f57600080fd5b506102016108a5565b34801561032457600080fd5b506103386103333660046113eb565b6108b7565b6040516101d891906114d1565b34801561035157600080fd5b506101966108d6565b34801561036657600080fd5b506101cb6103753660046113bc565b6109ac565b34801561038657600080fd5b506102016109c4565b34801561039b57600080fd5b506102016109c9565b3480156103b057600080fd5b506102016103bf366004611251565b6109cf565b3480156103d057600080fd5b506101966103df3660046113a4565b610a14565b3480156103f057600080fd5b506102016103ff3660046113a4565b610abe565b34801561041057600080fd5b5061020161041f3660046113a4565b610ad0565b34801561043057600080fd5b5061019661043f3660046113bc565b610ae7565b34801561045057600080fd5b50610201610b21565b610196610467366004611251565b610b33565b600080516020611c2d83398151915261048781610375610c69565b8061049857506104988160006109ac565b6104bd5760405162461bcd60e51b81526004016104b490611860565b60405180910390fd5b60006104cd898989898989610712565b90506104d98184610c6d565b6000817f8df6186c52f5d6410d3fc41d01f19a1f1b05960144685cabb7c1e07d2e8776208b8b8b8b8b604051610513959493929190611517565b60405180910390a3505050505050505050565b600080516020611c0d83398151915261054181610375610c69565b8061055257506105528160006109ac565b61056e5760405162461bcd60e51b81526004016104b490611860565b600061057e888888888888610712565b905061058a8185610cdb565b6105998160008a8a8a8a610d42565b505050505050505050565b60008181526001602081905260408220541180156105d057506000828152600160205260409020544210155b92915050565b60009081526020819052604090206002015490565b6000908152600160208190526040909120541490565b60008281526020819052604090206002015461061f90610375610c69565b61063b5760405162461bcd60e51b81526004016104b4906116d1565b6106458282610e0d565b5050565b610651610c69565b6001600160a01b0316816001600160a01b0316146106815760405162461bcd60e51b81526004016104b490611aae565b6106458282610e76565b6000908152600160208190526040909120541190565b3330146106c05760405162461bcd60e51b81526004016104b490611720565b7f11c24f4ead16507c69ac467fbd5e4eed5fb5c699626d2cc6d66421df253886d5816002546040516106f3929190611ba1565b60405180910390a1600255565b600080516020611c4d83398151915281565b600086868686868660405160200161072f96959493929190611551565b6040516020818303038152906040528051906020012090509695505050505050565b600080516020611c2d83398151915261076c81610375610c69565b8061077d575061077d8160006109ac565b6107995760405162461bcd60e51b81526004016104b490611860565b8887146107b85760405162461bcd60e51b81526004016104b490611771565b8885146107d75760405162461bcd60e51b81526004016104b490611771565b60006107e98b8b8b8b8b8b8b8b6109cf565b90506107f58184610c6d565b60005b8a8110156108975780827f8df6186c52f5d6410d3fc41d01f19a1f1b05960144685cabb7c1e07d2e8776208e8e8581811061082f57fe5b90506020020160208101906108449190611156565b8d8d8681811061085057fe5b905060200201358c8c8781811061086357fe5b90506020028101906108759190611baf565b8c604051610887959493929190611517565b60405180910390a36001016107f8565b505050505050505050505050565b600080516020611c2d83398151915281565b60008281526020819052604081206108cf9083610edf565b9392505050565b6108ed600080516020611c4d833981519152610ad0565b60011461090c5760405162461bcd60e51b81526004016104b490611a51565b6000610925600080516020611c2d833981519152610ad0565b116109425760405162461bcd60e51b81526004016104b490611944565b600061095b600080516020611c0d833981519152610ad0565b116109785760405162461bcd60e51b81526004016104b4906117ec565b610990600080516020611c4d83398151915230610601565b6109aa600080516020611c4d83398151915261043f610c69565b565b60008281526020819052604081206108cf9083610eeb565b600081565b60025490565b600088888888888888886040516020016109f098979695949392919061158e565b60405160208183030381529060405280519060200120905098975050505050505050565b600080516020611c2d833981519152610a2f81610375610c69565b80610a405750610a408160006109ac565b610a5c5760405162461bcd60e51b81526004016104b490611860565b610a65826105eb565b15610a825760405162461bcd60e51b81526004016104b490611b50565b6000828152600160205260408082208290555183917fbaa1eb22f2a492ba1a5fea61b8df4d27c6c8b5f3971e63bb58fa14ff72eedb7091a25050565b60009081526001602052604090205490565b60008181526020819052604081206105d090610f00565b600082815260208190526040902060020154610b0590610375610c69565b6106815760405162461bcd60e51b81526004016104b4906118ae565b600080516020611c0d83398151915281565b600080516020611c0d833981519152610b4e81610375610c69565b80610b5f5750610b5f8160006109ac565b610b7b5760405162461bcd60e51b81526004016104b490611860565b878614610b9a5760405162461bcd60e51b81526004016104b490611771565b878414610bb95760405162461bcd60e51b81526004016104b490611771565b6000610bcb8a8a8a8a8a8a8a8a6109cf565b9050610bd78185610cdb565b60005b89811015610c4757610c3e82828d8d85818110610bf357fe5b9050602002016020810190610c089190611156565b8c8c86818110610c1457fe5b905060200201358b8b87818110610c2757fe5b9050602002810190610c399190611baf565b610d42565b50600101610bda565b5050505050505050505050565b60006108cf836001600160a01b038416610f0b565b3390565b60008281526001602052604090205415610c995760405162461bcd60e51b81526004016104b4906119b8565b600254811015610cbb5760405162461bcd60e51b81526004016104b4906118fe565b610cc54282610f55565b6000928352600160205260409092209190915550565b610ce4826105a4565b610d005760405162461bcd60e51b81526004016104b490611a07565b801580610d115750610d11816105eb565b610d2d5760405162461bcd60e51b81526004016104b49061168b565b50600090815260016020819052604090912055565b600080856001600160a01b0316858585604051610d609291906114c1565b60006040518083038185875af1925050503d8060008114610d9d576040519150601f19603f3d011682016040523d82523d6000602084013e610da2565b606091505b5050905080610dc35760405162461bcd60e51b81526004016104b490611afd565b86887fc2617efa69bab66782fa219543714338489c4e9e178271560a91b82c3f612b5888888888604051610dfa94939291906114e5565b60405180910390a3509695505050505050565b6000828152602081905260409020610e259082610c54565b1561064557610e32610c69565b6001600160a01b0316816001600160a01b0316837f2f8788117e7eff1d82e926ec794901d17c78024a50270940304540a733656f0d60405160405180910390a45050565b6000828152602081905260409020610e8e9082610f7a565b1561064557610e9b610c69565b6001600160a01b0316816001600160a01b0316837ff6391f5c32d9c69d2a47ea670b442974b53935d1edc7fd64eb21e047a839171b60405160405180910390a45050565b60006108cf8383610f8f565b60006108cf836001600160a01b038416610fd4565b60006105d082610fec565b6000610f178383610fd4565b610f4d575081546001818101845560008481526020808220909301849055845484825282860190935260409020919091556105d0565b5060006105d0565b6000828201838110156108cf5760405162461bcd60e51b81526004016104b4906117b5565b60006108cf836001600160a01b038416610ff0565b81546000908210610fb25760405162461bcd60e51b81526004016104b490611649565b826000018281548110610fc157fe5b9060005260206000200154905092915050565b60009081526001919091016020526040902054151590565b5490565b600081815260018301602052604081205480156110ac578354600019808301919081019060009087908390811061102357fe5b906000526020600020015490508087600001848154811061104057fe5b60009182526020808320909101929092558281526001898101909252604090209084019055865487908061107057fe5b600190038181906000526020600020016000905590558660010160008781526020019081526020016000206000905560019450505050506105d0565b60009150506105d0565b80356001600160a01b03811681146105d057600080fd5b60008083601f8401126110de578182fd5b50813567ffffffffffffffff8111156110f5578182fd5b602083019150836020808302850101111561110f57600080fd5b9250929050565b60008083601f840112611127578182fd5b50813567ffffffffffffffff81111561113e578182fd5b60208301915083602082850101111561110f57600080fd5b600060208284031215611167578081fd5b6108cf83836110b6565b60008060008060008060a08789031215611189578182fd5b863561119481611bf4565b955060208701359450604087013567ffffffffffffffff8111156111b6578283fd5b6111c289828a01611116565b979a9699509760608101359660809091013595509350505050565b600080600080600080600060c0888a0312156111f7578081fd5b61120189896110b6565b965060208801359550604088013567ffffffffffffffff811115611223578182fd5b61122f8a828b01611116565b989b979a50986060810135976080820135975060a09091013595509350505050565b60008060008060008060008060a0898b03121561126c578081fd5b883567ffffffffffffffff80821115611283578283fd5b61128f8c838d016110cd565b909a50985060208b01359150808211156112a7578283fd5b6112b38c838d016110cd565b909850965060408b01359150808211156112cb578283fd5b506112d88b828c016110cd565b999c989b509699959896976060870135966080013595509350505050565b600080600080600080600080600060c08a8c031215611313578081fd5b893567ffffffffffffffff8082111561132a578283fd5b6113368d838e016110cd565b909b50995060208c013591508082111561134e578283fd5b61135a8d838e016110cd565b909950975060408c0135915080821115611372578283fd5b5061137f8c828d016110cd565b9a9d999c50979a969997986060880135976080810135975060a0013595509350505050565b6000602082840312156113b5578081fd5b5035919050565b600080604083850312156113ce578182fd5b8235915060208301356113e081611bf4565b809150509250929050565b600080604083850312156113fd578182fd5b50508035926020909101359150565b818352602080840193600091908185020181018584845b8781101561148a5782840389528135601e19883603018112611443578687fd5b8701803567ffffffffffffffff81111561145b578788fd5b803603891315611469578788fd5b6114768682898501611497565b9a87019a9550505090840190600101611423565b5091979650505050505050565b60008284528282602086013780602084860101526020601f19601f85011685010190509392505050565b6000828483379101908152919050565b6001600160a01b0391909116815260200190565b600060018060a01b03861682528460208301526060604083015261150d606083018486611497565b9695505050505050565b600060018060a01b03871682528560208301526080604083015261153f608083018587611497565b90508260608301529695505050505050565b600060018060a01b038816825286602083015260a0604083015261157960a083018688611497565b60608301949094525060800152949350505050565b60a0808252810188905260008960c08301825b8b8110156115d15760208381016001600160a01b036115c082876110b6565b1684529350909101906001016115a1565b5083810360208501528881526001600160fb1b038911156115f0578283fd5b602089029150818a6020830137016020818101838152848303909101604085015261161c81888a61140c565b6060850196909652505050608001529695505050505050565b901515815260200190565b90815260200190565b60208082526022908201527f456e756d657261626c655365743a20696e646578206f7574206f6620626f756e604082015261647360f01b606082015260800190565b60208082526026908201527f54696d656c6f636b436f6e74726f6c6c65723a206d697373696e6720646570656040820152656e64656e637960d01b606082015260800190565b6020808252602f908201527f416363657373436f6e74726f6c3a2073656e646572206d75737420626520616e60408201526e0818591b5a5b881d1bc819dc985b9d608a1b606082015260800190565b60208082526031908201527f54696d656c6f636b436f6e74726f6c6c65723a2072657374726963746564206d60408201527061696e74656e616e63652061636365737360781b606082015260800190565b60208082526024908201527f54696d656c6f636b436f6e74726f6c6c65723a206c656e677468206d6973736d6040820152630c2e8c6d60e31b606082015260800190565b6020808252601b908201527f536166654d6174683a206164646974696f6e206f766572666c6f770000000000604082015260600190565b6020808252604e908201527f54696d656c6f636b436f6e74726f6c6c65723a206174206c65617374206f6e6560408201527f206578656375746572206973207265717569656420746f206d616b652074686560608201526d20636f6e7472616374206c69766560901b608082015260a00190565b6020808252602e908201527f54696d656c6f636b436f6e74726f6c6c65723a2073656e64657220726571756960408201526d32b939903832b936b4b9b9b4b7b760911b606082015260800190565b60208082526030908201527f416363657373436f6e74726f6c3a2073656e646572206d75737420626520616e60408201526f2061646d696e20746f207265766f6b6560801b606082015260800190565b60208082526026908201527f54696d656c6f636b436f6e74726f6c6c65723a20696e73756666696369656e746040820152652064656c617960d01b606082015260800190565b6020808252604e908201527f54696d656c6f636b436f6e74726f6c6c65723a206174206c65617374206f6e6560408201527f2070726f706f736572206973207265717569656420746f206d616b652074686560608201526d20636f6e7472616374206c69766560901b608082015260a00190565b6020808252602f908201527f54696d656c6f636b436f6e74726f6c6c65723a206f7065726174696f6e20616c60408201526e1c9958591e481cd8da19591d5b1959608a1b606082015260800190565b6020808252602a908201527f54696d656c6f636b436f6e74726f6c6c65723a206f7065726174696f6e206973604082015269206e6f7420726561647960b01b606082015260800190565b6020808252603f908201527f54696d656c6f636b436f6e74726f6c6c65723a2074686572652073686f756c6460408201527f206e6f7420626520616e79206f746865722061646d696e6973747261746f7200606082015260800190565b6020808252602f908201527f416363657373436f6e74726f6c3a2063616e206f6e6c792072656e6f756e636560408201526e103937b632b9903337b91039b2b63360891b606082015260800190565b60208082526033908201527f54696d656c6f636b436f6e74726f6c6c65723a20756e6465726c79696e6720746040820152721c985b9cd858dd1a5bdb881c995d995c9d1959606a1b606082015260800190565b60208082526031908201527f54696d656c6f636b436f6e74726f6c6c65723a206f7065726174696f6e20697360408201527008185b1c9958591e48195e1958dd5d1959607a1b606082015260800190565b918252602082015260400190565b6000808335601e19843603018112611bc5578283fd5b83018035915067ffffffffffffffff821115611bdf578283fd5b60200191503681900382131561110f57600080fd5b6001600160a01b0381168114611c0957600080fd5b5056fef6d4b94561d34a2e202535a880be5a411bcfa4d7aeb44117cc8d682e63ec4759b09aa5aeb3702cfd50b6b62bc4532604938f21248a27a1d5ca736082b6819cc1a49807205ce4d355092ef5a8a18f56e8913cf4a201fbe287825b095693c21775a26469706673582212203b18e1f43129109283fdacf143f5b5551e0510cc1b29016ec4ea2b55e9d31b7564736f6c634300060c0033a49807205ce4d355092ef5a8a18f56e8913cf4a201fbe287825b095693c21775",
  "compiler": {
    "name": "solc",
    "version": "0.6.12+commit.27d51765.Emscripten.clang",
    "optimizer": {
      "enabled": true,
      "runs": 200
    },
    "evmVersion": "petersburg"
  }
}