{
  "fileName": "TimelockController.sol",
  "contractName": "TimelockController",
  "source": "// SPDX-License-Identifier: MIT\n\npragma solidity ^0.6.0;\npragma experimental ABIEncoderV2;\n\nimport \"./../math/SafeMath.sol\";\nimport \"./AccessControl.sol\";\n\n/**\n * @dev Contract module which acts as timelocked controller. When set as the\n * owner of an `Ownable` smartcontract, it enforces a timelock on all proxied\n * operations. This gives time for users of the controled contract to exit\n * before a potentially dangerous maintenance operation is applied.\n *\n * Timelock operations are identified by a unique id (their hash) and follow\n * a specific lifecycle: `Unset` → `Pending` → `Ready` → `Done`\n *\n * - `Unset`: The operation in not part of the timelock mechanism\n *\n * - `Pending`: By calling the {schedule} or {scheduleBatch} method, the\n * operation moves from the `Unset` to the `Pending` state. This states a timer\n * of at least `minDelay`.\n *\n * - `Ready`: After the timer expires, the operation moves from the `Pending` to\n * the `Ready` state. At this point it can be executed.\n *\n * - `Done`: Once an operation is ready, calling the {execute} or {executeBatch}\n * method will process it and move it to the `Done` state. If the operation has\n * a predecessor, it should be in the `Done` state. The operation shall not be\n * executed twice. To do so, restart the cycle with a different salt (thus\n * producing a dirrefent operation id).\n *\n * `Pending` and `Ready` operation can be canceled using the {cancel} method.\n * This resets the operation to the `Unset` state, making it possibly reschedule\n *\n * This contract is designed to be self administered, with maintenance\n * operations being proposed my a DAO or a multisig. A proposer and an executer\n * should be designed as soon as possible by the deployer. Administration\n * should then be handed to the contract itself by using the `makeLive`\n * function.\n *\n * WARNING: A live contract without at least one proposer and one executer is\n * locked. Make sure these role are filled by reliable entities. See the\n * {AccessControl} documentation to learn more about role management. Once the\n * {TimelockController} contract is live, role management is performed through\n * timelocked operations.\n */\n\ncontract TimelockController is AccessControl {\n\n    bytes32 public constant ADMIN_ROLE = keccak256(\"ADMIN_ROLE\");\n    bytes32 public constant PROPOSER_ROLE = keccak256(\"PROPOSER_ROLE\");\n    bytes32 public constant EXECUTER_ROLE = keccak256(\"EXECUTER_ROLE\");\n    uint256 internal constant _DONE_TIMESTAMP = uint256(1);\n\n    mapping(bytes32 => uint256) private _timestamps;\n    uint256 private _minDelay;\n\n    /**\n     * @dev Emitted when call is scheduled as part of operation `id`.\n     */\n    event CallScheduled(bytes32 indexed id, uint256 indexed index, address target, uint256 value, bytes data, bytes32 predecessor);\n\n    /**\n     * @dev Emitted when a call is performed as part of operation `id`.\n     */\n    event CallExecuted(bytes32 indexed id, uint256 indexed index, address target, uint256 value, bytes data);\n\n    /**\n     * @dev Emitted when operation `id` is canceled.\n     */\n    event Canceled(bytes32 indexed id);\n\n    /**\n     * @dev Emitted when the minimum delay for future operations is modified.\n     */\n    event MinDelayChange(uint256 newDuration, uint256 oldDuration);\n\n    /**\n     * @dev Initializes the contract with a given `minDelay`.\n     */\n    constructor(uint256 minDelay) public {\n        _setRoleAdmin(ADMIN_ROLE, ADMIN_ROLE);\n        _setRoleAdmin(PROPOSER_ROLE, ADMIN_ROLE);\n        _setRoleAdmin(EXECUTER_ROLE, ADMIN_ROLE);\n        _setupRole(ADMIN_ROLE, _msgSender());\n\n        _minDelay = minDelay;\n        emit MinDelayChange(minDelay, 0);\n    }\n\n    /**\n     * @dev Modifier to make a function callable only by a certain role.\n     * In addition to looking to the sender's role, address(0)'s role is also considered.\n     * Granting a role to Address(0) is thus equivalent to enabling this role for everyone.\n     */\n    modifier onlyRole(bytes32 role) {\n        require(hasRole(role, _msgSender()) || hasRole(role, address(0)), \"TimelockController: sender requiers permission\");\n        _;\n    }\n\n    /*\n     * @dev Contract might receive/hold ETH as part of the maintenance process.\n     */\n    receive() external payable {}\n\n    /**\n     * @dev Returns weither an operation is pending or not.\n     */\n    function isOperationPending(bytes32 id) public view returns (bool pending) {\n        return _timestamps[id] > _DONE_TIMESTAMP;\n    }\n\n    /**\n     * @dev Returns weither an operation is ready or not.\n     */\n    function isOperationReady(bytes32 id) public view returns (bool ready) {\n        // solhint-disable-next-line not-rely-on-time\n        return _timestamps[id] > _DONE_TIMESTAMP && _timestamps[id] <= block.timestamp;\n    }\n\n    /**\n     * @dev Returns weither an operation is done or not.\n     */\n    function isOperationDone(bytes32 id) public view returns (bool done) {\n        return _timestamps[id] == _DONE_TIMESTAMP;\n    }\n\n    /**\n     * @dev Returns the timestamp at with an operation becomes valid (0 for\n     * unscheduled operation).\n     */\n    function viewTimestamp(bytes32 id) public view returns (uint256 timestamp) {\n        return _timestamps[id];\n    }\n\n    /**\n     * @dev Returns the minimum delay for a operation to become valid.\n     */\n    function viewMinDelay() public view returns (uint256 duration) {\n        return _minDelay;\n    }\n\n    /**\n     * @dev Returns the identifier of an operation containing a single\n     * transaction.\n     */\n    function hashOperation(address target, uint256 value, bytes calldata data, bytes32 predecessor, bytes32 salt) public pure returns (bytes32 hash) {\n        return keccak256(abi.encode(target, value, data, predecessor, salt));\n    }\n\n    /**\n     * @dev Returns the identifier of an operation containing a batch of\n     * transactions.\n     */\n    function hashOperationBatch(address[] calldata targets, uint256[] calldata values, bytes[] calldata datas, bytes32 predecessor, bytes32 salt) public pure returns (bytes32 hash) {\n        return keccak256(abi.encode(targets, values, datas, predecessor, salt));\n    }\n\n    /**\n     * @dev Schedule an operation containing a single transaction.\n     *\n     * Emits a {CallScheduled} event.\n     *\n     * Requirements:\n     *\n     * - the caller must have the 'proposer' role.\n     */\n    function schedule(address target, uint256 value, bytes calldata data, bytes32 predecessor, bytes32 salt, uint256 delay) public payable onlyRole(PROPOSER_ROLE) {\n        bytes32 id = hashOperation(target, value, data, predecessor, salt);\n        _schedule(id, delay);\n        emit CallScheduled(id, 0, target, value, data, predecessor);\n    }\n\n    /**\n     * @dev Schedule an operation containing a batch of transactions.\n     *\n     * Emits one {CallScheduled} event per\n     * entry in the batch.\n     *\n     * Requirements:\n     *\n     * - the caller must have the 'proposer' role.\n     */\n    function scheduleBatch(address[] calldata targets, uint256[] calldata values, bytes[] calldata datas, bytes32 predecessor, bytes32 salt, uint256 delay) public payable onlyRole(PROPOSER_ROLE) {\n        require(targets.length == values.length, \"TimelockController: length missmatch\");\n        require(targets.length == datas.length, \"TimelockController: length missmatch\");\n\n        bytes32 id = hashOperationBatch(targets, values, datas, predecessor, salt);\n        _schedule(id, delay);\n        for (uint256 i = 0; i < targets.length; ++i) {\n            emit CallScheduled(id, i, targets[i], values[i], datas[i], predecessor);\n        }\n    }\n\n    /**\n     * @dev Schedule an operation that is to becomes valid after a given delay.\n     */\n    function _schedule(bytes32 id, uint256 delay) internal {\n        require(_timestamps[id] == 0, \"TimelockController: operation already scheduled\");\n        require(delay >= _minDelay, \"TimelockController: insufficient delay\");\n        // solhint-disable-next-line not-rely-on-time\n        _timestamps[id] = SafeMath.add(block.timestamp, delay);\n    }\n\n    /**\n     * @dev Cancel an operation.\n     *\n     * Requirements:\n     *\n     * - the caller must have the 'proposer' role.\n     */\n    function cancel(bytes32 id) public onlyRole(PROPOSER_ROLE) {\n        require(!isOperationDone(id), \"TimelockController: operation is already executed\");\n        delete _timestamps[id];\n\n        emit Canceled(id);\n    }\n\n    /**\n     * @dev Execute an (ready) operation containing a single transaction.\n     *\n     * Emits a {CallExecuted} event.\n     *\n     * Requirements:\n     *\n     * - the caller must have the 'executer' role.\n     */\n    function execute(address target, uint256 value, bytes calldata data, bytes32 predecessor, bytes32 salt) public payable onlyRole(EXECUTER_ROLE) {\n        bytes32 id = hashOperation(target, value, data, predecessor, salt);\n        _execute(id, predecessor);\n        _call(id, 0, target, value, data);\n    }\n\n    /**\n     * @dev Execute an (ready) operation containing a batch of transactions.\n     *\n     * Emits one {CallExecuted} event per\n     * entry in the batch.\n     *\n     * Requirements:\n     *\n     * - the caller must have the 'executer' role.\n     */\n    function executeBatch(address[] calldata targets, uint256[] calldata values, bytes[] calldata datas, bytes32 predecessor, bytes32 salt) public payable onlyRole(EXECUTER_ROLE) {\n        require(targets.length == values.length, \"TimelockController: length missmatch\");\n        require(targets.length == datas.length, \"TimelockController: length missmatch\");\n\n        bytes32 id = hashOperationBatch(targets, values, datas, predecessor, salt);\n        _execute(id, predecessor);\n        for (uint256 i = 0; i < targets.length; ++i) {\n            _call(id, i, targets[i], values[i], datas[i]);\n        }\n    }\n\n    /**\n     * @dev Execute an operation. Operation must be ready.\n     */\n    function _execute(bytes32 id, bytes32 predecessor) internal {\n        require(isOperationReady(id), \"TimelockController: operation is not ready\");\n        require(predecessor == bytes32(0) || isOperationDone(predecessor), \"TimelockController: missing dependency\");\n        _timestamps[id] = _DONE_TIMESTAMP;\n    }\n\n    /**\n     * @dev Execute a transaction.\n     *\n     * Emits a {CallExecuted} event.\n     */\n    function _call(bytes32 id, uint256 index, address target, uint256 value, bytes calldata data) internal returns (bool) {\n        // solhint-disable-next-line avoid-low-level-calls\n        (bool success,) = target.call{value: value}(data);\n        require(success, \"TimelockController: underlying transaction reverted\");\n\n        emit CallExecuted(id, index, target, value, data);\n    }\n\n    /**\n     * @dev Changes the timelock duration for future operations.\n     *\n     * Emits a {Timelock-MinDelayChange} event.\n     */\n    function updateDelay(uint256 newDelay) external {\n        require(msg.sender == address(this), \"TimelockController: restricted maintenance access\");\n        emit MinDelayChange(newDelay, _minDelay);\n        _minDelay = newDelay;\n    }\n\n    /**\n     * @dev Revocake the sender's administrative power, and give this role to\n     * the timelock itself. All further maintenance will have to be performed\n     * by the timelock itself using the commit/reveal workflow.\n     *\n     * Emits one {RoleGranted} and one {RoleRevoked} event.\n     *\n     * Requirements:\n     *\n     * - the caller must be the only address with 'administration' role.\n     * - there must be at least one account with role 'proposer' and one with\n     *   role 'executer'.\n     */\n    function makeLive() external /* onlyRole(ADMIN_ROLE) */ {\n        require(getRoleMemberCount(ADMIN_ROLE) == 1, \"TimelockController: there should not be any other administrator\");\n        require(getRoleMemberCount(PROPOSER_ROLE) > 0, \"TimelockController: at least one proposer is requied to make the contract live\");\n        require(getRoleMemberCount(EXECUTER_ROLE) > 0, \"TimelockController: at least one executer is requied to make the contract live\");\n        grantRole(ADMIN_ROLE, address(this));\n        revokeRole(ADMIN_ROLE, _msgSender());\n    }\n}\n\n// Time tracking\n// 28/08: 5h (5h)\n// 30/08: 1h (6h)\n//  1/09: 2h (8h)\n//  2/09: 1h (9h)\n//  3/09: 1h (10h)\n//  5/09: 2h (12h)\n",
  "sourcePath": "contracts/access/TimelockController.sol",
  "abi": [
    {
      "inputs": [
        {
          "internalType": "uint256",
          "name": "minDelay",
          "type": "uint256"
        }
      ],
      "stateMutability": "nonpayable",
      "type": "constructor"
    },
    {
      "anonymous": false,
      "inputs": [
        {
          "indexed": true,
          "internalType": "bytes32",
          "name": "id",
          "type": "bytes32"
        },
        {
          "indexed": true,
          "internalType": "uint256",
          "name": "index",
          "type": "uint256"
        },
        {
          "indexed": false,
          "internalType": "address",
          "name": "target",
          "type": "address"
        },
        {
          "indexed": false,
          "internalType": "uint256",
          "name": "value",
          "type": "uint256"
        },
        {
          "indexed": false,
          "internalType": "bytes",
          "name": "data",
          "type": "bytes"
        }
      ],
      "name": "CallExecuted",
      "type": "event"
    },
    {
      "anonymous": false,
      "inputs": [
        {
          "indexed": true,
          "internalType": "bytes32",
          "name": "id",
          "type": "bytes32"
        },
        {
          "indexed": true,
          "internalType": "uint256",
          "name": "index",
          "type": "uint256"
        },
        {
          "indexed": false,
          "internalType": "address",
          "name": "target",
          "type": "address"
        },
        {
          "indexed": false,
          "internalType": "uint256",
          "name": "value",
          "type": "uint256"
        },
        {
          "indexed": false,
          "internalType": "bytes",
          "name": "data",
          "type": "bytes"
        },
        {
          "indexed": false,
          "internalType": "bytes32",
          "name": "predecessor",
          "type": "bytes32"
        }
      ],
      "name": "CallScheduled",
      "type": "event"
    },
    {
      "anonymous": false,
      "inputs": [
        {
          "indexed": true,
          "internalType": "bytes32",
          "name": "id",
          "type": "bytes32"
        }
      ],
      "name": "Canceled",
      "type": "event"
    },
    {
      "anonymous": false,
      "inputs": [
        {
          "indexed": false,
          "internalType": "uint256",
          "name": "newDuration",
          "type": "uint256"
        },
        {
          "indexed": false,
          "internalType": "uint256",
          "name": "oldDuration",
          "type": "uint256"
        }
      ],
      "name": "MinDelayChange",
      "type": "event"
    },
    {
      "anonymous": false,
      "inputs": [
        {
          "indexed": true,
          "internalType": "bytes32",
          "name": "role",
          "type": "bytes32"
        },
        {
          "indexed": true,
          "internalType": "bytes32",
          "name": "previousAdminRole",
          "type": "bytes32"
        },
        {
          "indexed": true,
          "internalType": "bytes32",
          "name": "newAdminRole",
          "type": "bytes32"
        }
      ],
      "name": "RoleAdminChanged",
      "type": "event"
    },
    {
      "anonymous": false,
      "inputs": [
        {
          "indexed": true,
          "internalType": "bytes32",
          "name": "role",
          "type": "bytes32"
        },
        {
          "indexed": true,
          "internalType": "address",
          "name": "account",
          "type": "address"
        },
        {
          "indexed": true,
          "internalType": "address",
          "name": "sender",
          "type": "address"
        }
      ],
      "name": "RoleGranted",
      "type": "event"
    },
    {
      "anonymous": false,
      "inputs": [
        {
          "indexed": true,
          "internalType": "bytes32",
          "name": "role",
          "type": "bytes32"
        },
        {
          "indexed": true,
          "internalType": "address",
          "name": "account",
          "type": "address"
        },
        {
          "indexed": true,
          "internalType": "address",
          "name": "sender",
          "type": "address"
        }
      ],
      "name": "RoleRevoked",
      "type": "event"
    },
    {
      "inputs": [],
      "name": "ADMIN_ROLE",
      "outputs": [
        {
          "internalType": "bytes32",
          "name": "",
          "type": "bytes32"
        }
      ],
      "stateMutability": "view",
      "type": "function"
    },
    {
      "inputs": [],
      "name": "DEFAULT_ADMIN_ROLE",
      "outputs": [
        {
          "internalType": "bytes32",
          "name": "",
          "type": "bytes32"
        }
      ],
      "stateMutability": "view",
      "type": "function"
    },
    {
      "inputs": [],
      "name": "EXECUTER_ROLE",
      "outputs": [
        {
          "internalType": "bytes32",
          "name": "",
          "type": "bytes32"
        }
      ],
      "stateMutability": "view",
      "type": "function"
    },
    {
      "inputs": [],
      "name": "PROPOSER_ROLE",
      "outputs": [
        {
          "internalType": "bytes32",
          "name": "",
          "type": "bytes32"
        }
      ],
      "stateMutability": "view",
      "type": "function"
    },
    {
      "inputs": [
        {
          "internalType": "bytes32",
          "name": "id",
          "type": "bytes32"
        }
      ],
      "name": "cancel",
      "outputs": [],
      "stateMutability": "nonpayable",
      "type": "function"
    },
    {
      "inputs": [
        {
          "internalType": "address",
          "name": "target",
          "type": "address"
        },
        {
          "internalType": "uint256",
          "name": "value",
          "type": "uint256"
        },
        {
          "internalType": "bytes",
          "name": "data",
          "type": "bytes"
        },
        {
          "internalType": "bytes32",
          "name": "predecessor",
          "type": "bytes32"
        },
        {
          "internalType": "bytes32",
          "name": "salt",
          "type": "bytes32"
        }
      ],
      "name": "execute",
      "outputs": [],
      "stateMutability": "payable",
      "type": "function"
    },
    {
      "inputs": [
        {
          "internalType": "address[]",
          "name": "targets",
          "type": "address[]"
        },
        {
          "internalType": "uint256[]",
          "name": "values",
          "type": "uint256[]"
        },
        {
          "internalType": "bytes[]",
          "name": "datas",
          "type": "bytes[]"
        },
        {
          "internalType": "bytes32",
          "name": "predecessor",
          "type": "bytes32"
        },
        {
          "internalType": "bytes32",
          "name": "salt",
          "type": "bytes32"
        }
      ],
      "name": "executeBatch",
      "outputs": [],
      "stateMutability": "payable",
      "type": "function"
    },
    {
      "inputs": [
        {
          "internalType": "bytes32",
          "name": "role",
          "type": "bytes32"
        }
      ],
      "name": "getRoleAdmin",
      "outputs": [
        {
          "internalType": "bytes32",
          "name": "",
          "type": "bytes32"
        }
      ],
      "stateMutability": "view",
      "type": "function"
    },
    {
      "inputs": [
        {
          "internalType": "bytes32",
          "name": "role",
          "type": "bytes32"
        },
        {
          "internalType": "uint256",
          "name": "index",
          "type": "uint256"
        }
      ],
      "name": "getRoleMember",
      "outputs": [
        {
          "internalType": "address",
          "name": "",
          "type": "address"
        }
      ],
      "stateMutability": "view",
      "type": "function"
    },
    {
      "inputs": [
        {
          "internalType": "bytes32",
          "name": "role",
          "type": "bytes32"
        }
      ],
      "name": "getRoleMemberCount",
      "outputs": [
        {
          "internalType": "uint256",
          "name": "",
          "type": "uint256"
        }
      ],
      "stateMutability": "view",
      "type": "function"
    },
    {
      "inputs": [
        {
          "internalType": "bytes32",
          "name": "role",
          "type": "bytes32"
        },
        {
          "internalType": "address",
          "name": "account",
          "type": "address"
        }
      ],
      "name": "grantRole",
      "outputs": [],
      "stateMutability": "nonpayable",
      "type": "function"
    },
    {
      "inputs": [
        {
          "internalType": "bytes32",
          "name": "role",
          "type": "bytes32"
        },
        {
          "internalType": "address",
          "name": "account",
          "type": "address"
        }
      ],
      "name": "hasRole",
      "outputs": [
        {
          "internalType": "bool",
          "name": "",
          "type": "bool"
        }
      ],
      "stateMutability": "view",
      "type": "function"
    },
    {
      "inputs": [
        {
          "internalType": "address",
          "name": "target",
          "type": "address"
        },
        {
          "internalType": "uint256",
          "name": "value",
          "type": "uint256"
        },
        {
          "internalType": "bytes",
          "name": "data",
          "type": "bytes"
        },
        {
          "internalType": "bytes32",
          "name": "predecessor",
          "type": "bytes32"
        },
        {
          "internalType": "bytes32",
          "name": "salt",
          "type": "bytes32"
        }
      ],
      "name": "hashOperation",
      "outputs": [
        {
          "internalType": "bytes32",
          "name": "hash",
          "type": "bytes32"
        }
      ],
      "stateMutability": "pure",
      "type": "function"
    },
    {
      "inputs": [
        {
          "internalType": "address[]",
          "name": "targets",
          "type": "address[]"
        },
        {
          "internalType": "uint256[]",
          "name": "values",
          "type": "uint256[]"
        },
        {
          "internalType": "bytes[]",
          "name": "datas",
          "type": "bytes[]"
        },
        {
          "internalType": "bytes32",
          "name": "predecessor",
          "type": "bytes32"
        },
        {
          "internalType": "bytes32",
          "name": "salt",
          "type": "bytes32"
        }
      ],
      "name": "hashOperationBatch",
      "outputs": [
        {
          "internalType": "bytes32",
          "name": "hash",
          "type": "bytes32"
        }
      ],
      "stateMutability": "pure",
      "type": "function"
    },
    {
      "inputs": [
        {
          "internalType": "bytes32",
          "name": "id",
          "type": "bytes32"
        }
      ],
      "name": "isOperationDone",
      "outputs": [
        {
          "internalType": "bool",
          "name": "done",
          "type": "bool"
        }
      ],
      "stateMutability": "view",
      "type": "function"
    },
    {
      "inputs": [
        {
          "internalType": "bytes32",
          "name": "id",
          "type": "bytes32"
        }
      ],
      "name": "isOperationPending",
      "outputs": [
        {
          "internalType": "bool",
          "name": "pending",
          "type": "bool"
        }
      ],
      "stateMutability": "view",
      "type": "function"
    },
    {
      "inputs": [
        {
          "internalType": "bytes32",
          "name": "id",
          "type": "bytes32"
        }
      ],
      "name": "isOperationReady",
      "outputs": [
        {
          "internalType": "bool",
          "name": "ready",
          "type": "bool"
        }
      ],
      "stateMutability": "view",
      "type": "function"
    },
    {
      "inputs": [],
      "name": "makeLive",
      "outputs": [],
      "stateMutability": "nonpayable",
      "type": "function"
    },
    {
      "inputs": [
        {
          "internalType": "bytes32",
          "name": "role",
          "type": "bytes32"
        },
        {
          "internalType": "address",
          "name": "account",
          "type": "address"
        }
      ],
      "name": "renounceRole",
      "outputs": [],
      "stateMutability": "nonpayable",
      "type": "function"
    },
    {
      "inputs": [
        {
          "internalType": "bytes32",
          "name": "role",
          "type": "bytes32"
        },
        {
          "internalType": "address",
          "name": "account",
          "type": "address"
        }
      ],
      "name": "revokeRole",
      "outputs": [],
      "stateMutability": "nonpayable",
      "type": "function"
    },
    {
      "inputs": [
        {
          "internalType": "address",
          "name": "target",
          "type": "address"
        },
        {
          "internalType": "uint256",
          "name": "value",
          "type": "uint256"
        },
        {
          "internalType": "bytes",
          "name": "data",
          "type": "bytes"
        },
        {
          "internalType": "bytes32",
          "name": "predecessor",
          "type": "bytes32"
        },
        {
          "internalType": "bytes32",
          "name": "salt",
          "type": "bytes32"
        },
        {
          "internalType": "uint256",
          "name": "delay",
          "type": "uint256"
        }
      ],
      "name": "schedule",
      "outputs": [],
      "stateMutability": "payable",
      "type": "function"
    },
    {
      "inputs": [
        {
          "internalType": "address[]",
          "name": "targets",
          "type": "address[]"
        },
        {
          "internalType": "uint256[]",
          "name": "values",
          "type": "uint256[]"
        },
        {
          "internalType": "bytes[]",
          "name": "datas",
          "type": "bytes[]"
        },
        {
          "internalType": "bytes32",
          "name": "predecessor",
          "type": "bytes32"
        },
        {
          "internalType": "bytes32",
          "name": "salt",
          "type": "bytes32"
        },
        {
          "internalType": "uint256",
          "name": "delay",
          "type": "uint256"
        }
      ],
      "name": "scheduleBatch",
      "outputs": [],
      "stateMutability": "payable",
      "type": "function"
    },
    {
      "inputs": [
        {
          "internalType": "uint256",
          "name": "newDelay",
          "type": "uint256"
        }
      ],
      "name": "updateDelay",
      "outputs": [],
      "stateMutability": "nonpayable",
      "type": "function"
    },
    {
      "inputs": [],
      "name": "viewMinDelay",
      "outputs": [
        {
          "internalType": "uint256",
          "name": "duration",
          "type": "uint256"
        }
      ],
      "stateMutability": "view",
      "type": "function"
    },
    {
      "inputs": [
        {
          "internalType": "bytes32",
          "name": "id",
          "type": "bytes32"
        }
      ],
      "name": "viewTimestamp",
      "outputs": [
        {
          "internalType": "uint256",
          "name": "timestamp",
          "type": "uint256"
        }
      ],
      "stateMutability": "view",
      "type": "function"
    },
    {
      "stateMutability": "payable",
      "type": "receive"
    }
  ],
  "bytecode": "0x60806040523480156200001157600080fd5b5060405162001f7738038062001f77833981016040819052620000349162000298565b6200004f60008051602062001f578339815191528062000132565b6200008a7fb09aa5aeb3702cfd50b6b62bc4532604938f21248a27a1d5ca736082b6819cc160008051602062001f5783398151915262000132565b620000c57ff6d4b94561d34a2e202535a880be5a411bcfa4d7aeb44117cc8d682e63ec475960008051602062001f5783398151915262000132565b620000e960008051602062001f57833981519152620000e362000184565b62000188565b60028190556040517f11c24f4ead16507c69ac467fbd5e4eed5fb5c699626d2cc6d66421df253886d59062000123908390600090620002b1565b60405180910390a150620002bf565b600082815260208190526040808220600201549051839285917fbd79b86ffe0ab8e8776151514217cd7cacd52c909f66475c3af44e129f0b00ff9190a460009182526020829052604090912060020155565b3390565b62000194828262000198565b5050565b600082815260208181526040909120620001bd91839062000c3a62000211821b17901c565b156200019457620001cd62000184565b6001600160a01b0316816001600160a01b0316837f2f8788117e7eff1d82e926ec794901d17c78024a50270940304540a733656f0d60405160405180910390a45050565b600062000228836001600160a01b03841662000231565b90505b92915050565b60006200023f838362000280565b62000277575081546001818101845560008481526020808220909301849055845484825282860190935260409020919091556200022b565b5060006200022b565b60009081526001919091016020526040902054151590565b600060208284031215620002aa578081fd5b5051919050565b918252602082015260400190565b611c8880620002cf6000396000f3fe60806040526004361061016a5760003560e01c80638f61f4f5116100d1578063b1c5f4271161008a578063ca15c87311610064578063ca15c873146103ea578063d547741f1461040a578063da04d0131461042a578063e38335e51461043f57610171565b8063b1c5f4271461038a578063c4d252f5146103aa578063c5226cb2146103ca57610171565b80638f61f4f5146102e95780639010d07c146102fe57806390e7760e1461032b57806391d1485414610340578063a217fddf14610360578063ad281f9f1461037557610171565b806336568abe1161012357806336568abe14610241578063584b153e1461026157806364d623531461028157806375b238fc146102a15780638065657f146102b65780638f2a0bb0146102d657610171565b806301d5062a14610176578063134008d31461018b57806313bc9f201461019e578063248a9ca3146101d45780632ab0f529146102015780632f2ff15d1461022157610171565b3661017157005b600080fd5b6101896101843660046111c3565b610452565b005b610189610199366004611157565b61050c565b3480156101aa57600080fd5b506101be6101b936600461138a565b61058a565b6040516101cb919061161b565b60405180910390f35b3480156101e057600080fd5b506101f46101ef36600461138a565b6105bc565b6040516101cb9190611626565b34801561020d57600080fd5b506101be61021c36600461138a565b6105d1565b34801561022d57600080fd5b5061018961023c3660046113a2565b6105e7565b34801561024d57600080fd5b5061018961025c3660046113a2565b61062f565b34801561026d57600080fd5b506101be61027c36600461138a565b610671565b34801561028d57600080fd5b5061018961029c36600461138a565b610687565b3480156102ad57600080fd5b506101f46106e6565b3480156102c257600080fd5b506101f46102d1366004611157565b6106f8565b6101896102e43660046112dc565b610737565b3480156102f557600080fd5b506101f461088b565b34801561030a57600080fd5b5061031e6103193660046113d1565b61089d565b6040516101cb91906114b7565b34801561033757600080fd5b506101896108bc565b34801561034c57600080fd5b506101be61035b3660046113a2565b610992565b34801561036c57600080fd5b506101f46109aa565b34801561038157600080fd5b506101f46109af565b34801561039657600080fd5b506101f46103a5366004611237565b6109b5565b3480156103b657600080fd5b506101896103c536600461138a565b6109fa565b3480156103d657600080fd5b506101f46103e536600461138a565b610aa4565b3480156103f657600080fd5b506101f461040536600461138a565b610ab6565b34801561041657600080fd5b506101896104253660046113a2565b610acd565b34801561043657600080fd5b506101f4610b07565b61018961044d366004611237565b610b19565b600080516020611c1383398151915261046d8161035b610c4f565b8061047e575061047e816000610992565b6104a35760405162461bcd60e51b815260040161049a90611846565b60405180910390fd5b60006104b38989898989896106f8565b90506104bf8184610c53565b6000817f8df6186c52f5d6410d3fc41d01f19a1f1b05960144685cabb7c1e07d2e8776208b8b8b8b8b6040516104f99594939291906114fd565b60405180910390a3505050505050505050565b600080516020611bf38339815191526105278161035b610c4f565b806105385750610538816000610992565b6105545760405162461bcd60e51b815260040161049a90611846565b60006105648888888888886106f8565b90506105708185610cc1565b61057f8160008a8a8a8a610d28565b505050505050505050565b60008181526001602081905260408220541180156105b657506000828152600160205260409020544210155b92915050565b60009081526020819052604090206002015490565b6000908152600160208190526040909120541490565b6000828152602081905260409020600201546106059061035b610c4f565b6106215760405162461bcd60e51b815260040161049a906116b7565b61062b8282610df3565b5050565b610637610c4f565b6001600160a01b0316816001600160a01b0316146106675760405162461bcd60e51b815260040161049a90611a94565b61062b8282610e5c565b6000908152600160208190526040909120541190565b3330146106a65760405162461bcd60e51b815260040161049a90611706565b7f11c24f4ead16507c69ac467fbd5e4eed5fb5c699626d2cc6d66421df253886d5816002546040516106d9929190611b87565b60405180910390a1600255565b600080516020611c3383398151915281565b600086868686868660405160200161071596959493929190611537565b6040516020818303038152906040528051906020012090509695505050505050565b600080516020611c138339815191526107528161035b610c4f565b806107635750610763816000610992565b61077f5760405162461bcd60e51b815260040161049a90611846565b88871461079e5760405162461bcd60e51b815260040161049a90611757565b8885146107bd5760405162461bcd60e51b815260040161049a90611757565b60006107cf8b8b8b8b8b8b8b8b6109b5565b90506107db8184610c53565b60005b8a81101561087d5780827f8df6186c52f5d6410d3fc41d01f19a1f1b05960144685cabb7c1e07d2e8776208e8e8581811061081557fe5b905060200201602081019061082a919061113c565b8d8d8681811061083657fe5b905060200201358c8c8781811061084957fe5b905060200281019061085b9190611b95565b8c60405161086d9594939291906114fd565b60405180910390a36001016107de565b505050505050505050505050565b600080516020611c1383398151915281565b60008281526020819052604081206108b59083610ec5565b9392505050565b6108d3600080516020611c33833981519152610ab6565b6001146108f25760405162461bcd60e51b815260040161049a90611a37565b600061090b600080516020611c13833981519152610ab6565b116109285760405162461bcd60e51b815260040161049a9061192a565b6000610941600080516020611bf3833981519152610ab6565b1161095e5760405162461bcd60e51b815260040161049a906117d2565b610976600080516020611c33833981519152306105e7565b610990600080516020611c33833981519152610425610c4f565b565b60008281526020819052604081206108b59083610ed1565b600081565b60025490565b600088888888888888886040516020016109d6989796959493929190611574565b60405160208183030381529060405280519060200120905098975050505050505050565b600080516020611c13833981519152610a158161035b610c4f565b80610a265750610a26816000610992565b610a425760405162461bcd60e51b815260040161049a90611846565b610a4b826105d1565b15610a685760405162461bcd60e51b815260040161049a90611b36565b6000828152600160205260408082208290555183917f134fdd648feeaf30251f0157f9624ef8608ff9a042aad6d13e73f35d21d3f88d91a25050565b60009081526001602052604090205490565b60008181526020819052604081206105b690610ee6565b600082815260208190526040902060020154610aeb9061035b610c4f565b6106675760405162461bcd60e51b815260040161049a90611894565b600080516020611bf383398151915281565b600080516020611bf3833981519152610b348161035b610c4f565b80610b455750610b45816000610992565b610b615760405162461bcd60e51b815260040161049a90611846565b878614610b805760405162461bcd60e51b815260040161049a90611757565b878414610b9f5760405162461bcd60e51b815260040161049a90611757565b6000610bb18a8a8a8a8a8a8a8a6109b5565b9050610bbd8185610cc1565b60005b89811015610c2d57610c2482828d8d85818110610bd957fe5b9050602002016020810190610bee919061113c565b8c8c86818110610bfa57fe5b905060200201358b8b87818110610c0d57fe5b9050602002810190610c1f9190611b95565b610d28565b50600101610bc0565b5050505050505050505050565b60006108b5836001600160a01b038416610ef1565b3390565b60008281526001602052604090205415610c7f5760405162461bcd60e51b815260040161049a9061199e565b600254811015610ca15760405162461bcd60e51b815260040161049a906118e4565b610cab4282610f3b565b6000928352600160205260409092209190915550565b610cca8261058a565b610ce65760405162461bcd60e51b815260040161049a906119ed565b801580610cf75750610cf7816105d1565b610d135760405162461bcd60e51b815260040161049a90611671565b50600090815260016020819052604090912055565b600080856001600160a01b0316858585604051610d469291906114a7565b60006040518083038185875af1925050503d8060008114610d83576040519150601f19603f3d011682016040523d82523d6000602084013e610d88565b606091505b5050905080610da95760405162461bcd60e51b815260040161049a90611ae3565b86887fc2617efa69bab66782fa219543714338489c4e9e178271560a91b82c3f612b5888888888604051610de094939291906114cb565b60405180910390a3509695505050505050565b6000828152602081905260409020610e0b9082610c3a565b1561062b57610e18610c4f565b6001600160a01b0316816001600160a01b0316837f2f8788117e7eff1d82e926ec794901d17c78024a50270940304540a733656f0d60405160405180910390a45050565b6000828152602081905260409020610e749082610f60565b1561062b57610e81610c4f565b6001600160a01b0316816001600160a01b0316837ff6391f5c32d9c69d2a47ea670b442974b53935d1edc7fd64eb21e047a839171b60405160405180910390a45050565b60006108b58383610f75565b60006108b5836001600160a01b038416610fba565b60006105b682610fd2565b6000610efd8383610fba565b610f33575081546001818101845560008481526020808220909301849055845484825282860190935260409020919091556105b6565b5060006105b6565b6000828201838110156108b55760405162461bcd60e51b815260040161049a9061179b565b60006108b5836001600160a01b038416610fd6565b81546000908210610f985760405162461bcd60e51b815260040161049a9061162f565b826000018281548110610fa757fe5b9060005260206000200154905092915050565b60009081526001919091016020526040902054151590565b5490565b60008181526001830160205260408120548015611092578354600019808301919081019060009087908390811061100957fe5b906000526020600020015490508087600001848154811061102657fe5b60009182526020808320909101929092558281526001898101909252604090209084019055865487908061105657fe5b600190038181906000526020600020016000905590558660010160008781526020019081526020016000206000905560019450505050506105b6565b60009150506105b6565b80356001600160a01b03811681146105b657600080fd5b60008083601f8401126110c4578182fd5b50813567ffffffffffffffff8111156110db578182fd5b60208301915083602080830285010111156110f557600080fd5b9250929050565b60008083601f84011261110d578182fd5b50813567ffffffffffffffff811115611124578182fd5b6020830191508360208285010111156110f557600080fd5b60006020828403121561114d578081fd5b6108b5838361109c565b60008060008060008060a0878903121561116f578182fd5b863561117a81611bda565b955060208701359450604087013567ffffffffffffffff81111561119c578283fd5b6111a889828a016110fc565b979a9699509760608101359660809091013595509350505050565b600080600080600080600060c0888a0312156111dd578081fd5b6111e7898961109c565b965060208801359550604088013567ffffffffffffffff811115611209578182fd5b6112158a828b016110fc565b989b979a50986060810135976080820135975060a09091013595509350505050565b60008060008060008060008060a0898b031215611252578081fd5b883567ffffffffffffffff80821115611269578283fd5b6112758c838d016110b3565b909a50985060208b013591508082111561128d578283fd5b6112998c838d016110b3565b909850965060408b01359150808211156112b1578283fd5b506112be8b828c016110b3565b999c989b509699959896976060870135966080013595509350505050565b600080600080600080600080600060c08a8c0312156112f9578081fd5b893567ffffffffffffffff80821115611310578283fd5b61131c8d838e016110b3565b909b50995060208c0135915080821115611334578283fd5b6113408d838e016110b3565b909950975060408c0135915080821115611358578283fd5b506113658c828d016110b3565b9a9d999c50979a969997986060880135976080810135975060a0013595509350505050565b60006020828403121561139b578081fd5b5035919050565b600080604083850312156113b4578182fd5b8235915060208301356113c681611bda565b809150509250929050565b600080604083850312156113e3578182fd5b50508035926020909101359150565b818352602080840193600091908185020181018584845b878110156114705782840389528135601e19883603018112611429578687fd5b8701803567ffffffffffffffff811115611441578788fd5b80360389131561144f578788fd5b61145c868289850161147d565b9a87019a9550505090840190600101611409565b5091979650505050505050565b60008284528282602086013780602084860101526020601f19601f85011685010190509392505050565b6000828483379101908152919050565b6001600160a01b0391909116815260200190565b600060018060a01b0386168252846020830152606060408301526114f360608301848661147d565b9695505050505050565b600060018060a01b03871682528560208301526080604083015261152560808301858761147d565b90508260608301529695505050505050565b600060018060a01b038816825286602083015260a0604083015261155f60a08301868861147d565b60608301949094525060800152949350505050565b60a0808252810188905260008960c08301825b8b8110156115b75760208381016001600160a01b036115a6828761109c565b168452935090910190600101611587565b5083810360208501528881526001600160fb1b038911156115d6578283fd5b602089029150818a6020830137016020818101838152848303909101604085015261160281888a6113f2565b6060850196909652505050608001529695505050505050565b901515815260200190565b90815260200190565b60208082526022908201527f456e756d657261626c655365743a20696e646578206f7574206f6620626f756e604082015261647360f01b606082015260800190565b60208082526026908201527f54696d656c6f636b436f6e74726f6c6c65723a206d697373696e6720646570656040820152656e64656e637960d01b606082015260800190565b6020808252602f908201527f416363657373436f6e74726f6c3a2073656e646572206d75737420626520616e60408201526e0818591b5a5b881d1bc819dc985b9d608a1b606082015260800190565b60208082526031908201527f54696d656c6f636b436f6e74726f6c6c65723a2072657374726963746564206d60408201527061696e74656e616e63652061636365737360781b606082015260800190565b60208082526024908201527f54696d656c6f636b436f6e74726f6c6c65723a206c656e677468206d6973736d6040820152630c2e8c6d60e31b606082015260800190565b6020808252601b908201527f536166654d6174683a206164646974696f6e206f766572666c6f770000000000604082015260600190565b6020808252604e908201527f54696d656c6f636b436f6e74726f6c6c65723a206174206c65617374206f6e6560408201527f206578656375746572206973207265717569656420746f206d616b652074686560608201526d20636f6e7472616374206c69766560901b608082015260a00190565b6020808252602e908201527f54696d656c6f636b436f6e74726f6c6c65723a2073656e64657220726571756960408201526d32b939903832b936b4b9b9b4b7b760911b606082015260800190565b60208082526030908201527f416363657373436f6e74726f6c3a2073656e646572206d75737420626520616e60408201526f2061646d696e20746f207265766f6b6560801b606082015260800190565b60208082526026908201527f54696d656c6f636b436f6e74726f6c6c65723a20696e73756666696369656e746040820152652064656c617960d01b606082015260800190565b6020808252604e908201527f54696d656c6f636b436f6e74726f6c6c65723a206174206c65617374206f6e6560408201527f2070726f706f736572206973207265717569656420746f206d616b652074686560608201526d20636f6e7472616374206c69766560901b608082015260a00190565b6020808252602f908201527f54696d656c6f636b436f6e74726f6c6c65723a206f7065726174696f6e20616c60408201526e1c9958591e481cd8da19591d5b1959608a1b606082015260800190565b6020808252602a908201527f54696d656c6f636b436f6e74726f6c6c65723a206f7065726174696f6e206973604082015269206e6f7420726561647960b01b606082015260800190565b6020808252603f908201527f54696d656c6f636b436f6e74726f6c6c65723a2074686572652073686f756c6460408201527f206e6f7420626520616e79206f746865722061646d696e6973747261746f7200606082015260800190565b6020808252602f908201527f416363657373436f6e74726f6c3a2063616e206f6e6c792072656e6f756e636560408201526e103937b632b9903337b91039b2b63360891b606082015260800190565b60208082526033908201527f54696d656c6f636b436f6e74726f6c6c65723a20756e6465726c79696e6720746040820152721c985b9cd858dd1a5bdb881c995d995c9d1959606a1b606082015260800190565b60208082526031908201527f54696d656c6f636b436f6e74726f6c6c65723a206f7065726174696f6e20697360408201527008185b1c9958591e48195e1958dd5d1959607a1b606082015260800190565b918252602082015260400190565b6000808335601e19843603018112611bab578283fd5b83018035915067ffffffffffffffff821115611bc5578283fd5b6020019150368190038213156110f557600080fd5b6001600160a01b0381168114611bef57600080fd5b5056fef6d4b94561d34a2e202535a880be5a411bcfa4d7aeb44117cc8d682e63ec4759b09aa5aeb3702cfd50b6b62bc4532604938f21248a27a1d5ca736082b6819cc1a49807205ce4d355092ef5a8a18f56e8913cf4a201fbe287825b095693c21775a26469706673582212209fa6d400e26782d2b763fcc354334c67bbf12dc92597f49b5446c3f74f0ea14d64736f6c634300060c0033a49807205ce4d355092ef5a8a18f56e8913cf4a201fbe287825b095693c21775",
  "compiler": {
    "name": "solc",
    "version": "0.6.12+commit.27d51765.Emscripten.clang",
    "optimizer": {
      "enabled": true,
      "runs": 200
    },
    "evmVersion": "petersburg"
  }
}